{"collectibles":"{\"favorites\":{}}","engine":"{\"backgroundState\":{\"AccountTrackerController\":{\"accounts\":{\"0x3c0B102a1921F9A75b791ad234E522198923a6Ec\":{\"balance\":\"0x15b13324df086f8\"}},\"_U\":0,\"_V\":0,\"_W\":null,\"_X\":null},\"AddressBookController\":{\"addressBook\":{}},\"AssetsContractController\":{},\"CollectiblesController\":{\"allCollectibleContracts\":{},\"allCollectibles\":{},\"ignoredCollectibles\":[],\"collectibleContracts\":[],\"collectibles\":[]},\"CurrencyRateController\":{\"conversionDate\":1652167508.91,\"conversionRate\":2394.99,\"nativeCurrency\":\"ETH\",\"currentCurrency\":\"usd\",\"pendingCurrentCurrency\":null,\"pendingNativeCurrency\":null,\"usdConversionRate\":2394.99},\"KeyringController\":{\"keyrings\":[],\"vault\":\"{\\\"cipher\\\":\\\"u8OjK4eiXptRKUrGKw1ypSWgVDCIojZbm94cHnrrVCQ7Tl+Tz52tn5m1R9mI52tPlRPB9qjtGcWHyhbc0wbzFDoVM150qBW/C5ajv+QDVixStWq0bDbgFfE5Xk0aTSmk8tp4Kscv6buZtitHelCKbBzGI9sC/dN1wZJcyE0JMRnk5AE+cKRLZU6cRSV5GgQDpHowkGe2NvF7rW9MyvOVQqY/eZFuKi/2L7ok97w022Q=\\\",\\\"iv\\\":\\\"d72d9f2753c647654f4e1e56212011e3\\\",\\\"salt\\\":\\\"PqHuWD0vL4KWXQmYeKfpdw==\\\",\\\"lib\\\":\\\"original\\\"}\"},\"PersonalMessageManager\":{\"unapprovedMessages\":{},\"unapprovedMessagesCount\":0},\"NetworkController\":{\"network\":\"3\",\"isCustomNetwork\":false,\"provider\":{\"type\":\"ropsten\",\"ticker\":\"ETH\",\"chainId\":\"3\"},\"properties\":{\"isEIP1559Compatible\":true}},\"PreferencesController\":{\"featureFlags\":{},\"frequentRpcList\":[],\"identities\":{\"0x3c0B102a1921F9A75b791ad234E522198923a6Ec\":{\"address\":\"0x3c0B102a1921F9A75b791ad234E522198923a6Ec\",\"name\":\"Account 1\",\"importTime\":1651221891424}},\"ipfsGateway\":\"https://cloudflare-ipfs.com/ipfs/\",\"lostIdentities\":{},\"selectedAddress\":\"0x3c0B102a1921F9A75b791ad234E522198923a6Ec\",\"useStaticTokenList\":true,\"useCollectibleDetection\":false,\"openSeaEnabled\":false,\"_U\":0,\"_V\":0,\"_W\":null,\"_X\":null},\"TokenBalancesController\":{\"contractBalances\":{}},\"TokenRatesController\":{\"contractExchangeRates\":{}},\"TokensController\":{\"allTokens\":{},\"allIgnoredTokens\":{},\"ignoredTokens\":[],\"suggestedAssets\":[],\"tokens\":[]},\"TransactionController\":{\"methodData\":{},\"transactions\":[{\"id\":\"2ebb93f0-d032-11ec-bcb1-21ab9f044663\",\"networkID\":\"3\",\"chainId\":\"3\",\"origin\":\"MetaMask Mobile\",\"status\":\"confirmed\",\"time\":1652167449263,\"transaction\":{\"from\":\"0x3c0b102a1921f9a75b791ad234e522198923a6ec\",\"gas\":\"0x5208\",\"nonce\":\"0x02\",\"to\":\"0xaf3bc11b63160469955ca5ca4be7093b240ccbf0\",\"value\":\"0x8e1bc9bf04000\",\"maxFeePerGas\":\"0x5f8dfd063a\",\"maxPriorityFeePerGas\":\"0x908a9040\",\"estimatedBaseFee\":\"0x4bfdf52b2e\",\"gasUsed\":\"0x5208\"},\"deviceConfirmedOn\":\"metamask_mobile\",\"verifiedOnBlockchain\":true,\"rawTransaction\":\"0x02f872030284908a9040855f8dfd063a82520894af3bc11b63160469955ca5ca4be7093b240ccbf08708e1bc9bf0400080c001a01b3403ae28f8e344fa86cd994b952ebbb15361a887f6806a6ce27b83bf790992a0488b6d4c51757b205d4f864f98f461348798cedc2a691c99456933e837b3e9ea\",\"transactionHash\":\"0x374c1668d3c9ca7b728a18655b50284d04c25c978c9bb15991d8a65ab5fc12a8\",\"toSmartContract\":false,\"insertImportTime\":false},{\"blockNumber\":\"12253027\",\"id\":\"b3ca5780-d031-11ec-bcb0-21ab9f044663\",\"networkID\":\"3\",\"chainId\":\"3\",\"time\":1652167243000,\"transaction\":{\"data\":\"0x\",\"from\":\"0xaf3bc11b63160469955ca5ca4be7093b240ccbf0\",\"gas\":\"0x5208\",\"gasPrice\":\"0x4c8e7fbb6e\",\"gasUsed\":\"0x5208\",\"nonce\":\"0x4\",\"to\":\"0x3c0b102a1921f9a75b791ad234e522198923a6ec\",\"value\":\"0x16345785d8a0000\"},\"transactionHash\":\"0xf84f09e18ee6d71a092b1a6686f0de34f006cdcf8b535433e67ff03a46b7a22c\",\"verifiedOnBlockchain\":true,\"status\":\"confirmed\",\"toSmartContract\":false,\"insertImportTime\":false},{\"blockNumber\":\"12253026\",\"id\":\"a745ff00-d031-11ec-bca7-21ab9f044663\",\"networkID\":\"3\",\"chainId\":\"3\",\"time\":1652167222000,\"transaction\":{\"data\":\"0x\",\"from\":\"0x3c0b102a1921f9a75b791ad234e522198923a6ec\",\"gas\":\"0x5208\",\"gasPrice\":\"0x54f0fdaf69\",\"gasUsed\":\"0x5208\",\"nonce\":\"0x1\",\"to\":\"0xaf3bc11b63160469955ca5ca4be7093b240ccbf0\",\"value\":\"0x6d23ad5f8000\"},\"transactionHash\":\"0x082b9bba6c373c5c5742b577d57fb7af6f038df1d9a37bdba6443e6e9be069d9\",\"verifiedOnBlockchain\":true,\"status\":\"confirmed\",\"toSmartContract\":false,\"insertImportTime\":false},{\"id\":\"8bc10360-d031-11ec-bca3-21ab9f044663\",\"networkID\":\"3\",\"chainId\":\"3\",\"origin\":\"MetaMask Mobile\",\"status\":\"confirmed\",\"time\":1652167175830,\"transaction\":{\"from\":\"0x3c0b102a1921f9a75b791ad234e522198923a6ec\",\"gas\":\"0x5208\",\"nonce\":\"0x0\",\"to\":\"0xaf3bc11b63160469955ca5ca4be7093b240ccbf0\",\"value\":\"0x5af3107a4000\",\"maxFeePerGas\":\"0x75054679af\",\"maxPriorityFeePerGas\":\"0x87ffb644\",\"estimatedBaseFee\":\"0x5d31056922\",\"gasUsed\":\"0x5208\"},\"deviceConfirmedOn\":\"metamask_mobile\",\"verifiedOnBlockchain\":true,\"insertImportTime\":false,\"rawTransaction\":\"0x02f87103808487ffb6448575054679af82520894af3bc11b63160469955ca5ca4be7093b240ccbf0865af3107a400080c080a0adfa6bfbc7708241f4b1c4bbbcf339fe521874e6741c76aabe9e00a0e4cdecdaa076ae457b46f40da6f4a9db7b5cbaffbfa4f8fda70496a6f813a6308470dc01e7\",\"transactionHash\":\"0x1fd1c96cc1af27329cd6fa9ad1dea1b1d571e7638d748bec3aad08b6874b9e8d\",\"toSmartContract\":false},{\"blockNumber\":\"12253022\",\"id\":\"37d00f82-d031-11ec-bca2-21ab9f044663\",\"networkID\":\"3\",\"chainId\":\"3\",\"time\":1652167035000,\"transaction\":{\"data\":\"0x\",\"from\":\"0xaf3bc11b63160469955ca5ca4be7093b240ccbf0\",\"gas\":\"0x5208\",\"gasPrice\":\"0x54580fe29a\",\"gasUsed\":\"0x5208\",\"nonce\":\"0x3\",\"to\":\"0x3c0b102a1921f9a75b791ad234e522198923a6ec\",\"value\":\"0x470de4df820000\"},\"transactionHash\":\"0xb53c8205bb74918f41c72b0c761582dff9e721cf16b624b520f968023eb0379c\",\"verifiedOnBlockchain\":true,\"status\":\"confirmed\",\"toSmartContract\":false,\"insertImportTime\":false},{\"blockNumber\":\"12253022\",\"id\":\"37d00f81-d031-11ec-bca2-21ab9f044663\",\"networkID\":\"3\",\"chainId\":\"3\",\"time\":1652167035000,\"transaction\":{\"data\":\"0x\",\"from\":\"0xaf3bc11b63160469955ca5ca4be7093b240ccbf0\",\"gas\":\"0x5208\",\"gasPrice\":\"0x54580fe29a\",\"gasUsed\":\"0x5208\",\"nonce\":\"0x2\",\"to\":\"0x3c0b102a1921f9a75b791ad234e522198923a6ec\",\"value\":\"0xbefe6f672000\"},\"transactionHash\":\"0x11a0cdb34f17e21e7c1fe92cdbf749e62992b3b35092cbc89d07f4ff244d3b51\",\"verifiedOnBlockchain\":true,\"status\":\"confirmed\",\"toSmartContract\":false,\"insertImportTime\":false},{\"blockNumber\":\"12253022\",\"id\":\"37d00f80-d031-11ec-bca2-21ab9f044663\",\"networkID\":\"3\",\"chainId\":\"3\",\"time\":1652167035000,\"transaction\":{\"data\":\"0x\",\"from\":\"0xaf3bc11b63160469955ca5ca4be7093b240ccbf0\",\"gas\":\"0x5208\",\"gasPrice\":\"0x54580fe29a\",\"gasUsed\":\"0x5208\",\"nonce\":\"0x1\",\"to\":\"0x3c0b102a1921f9a75b791ad234e522198923a6ec\",\"value\":\"0xaa87bee538000\"},\"transactionHash\":\"0x1cb3553780e31e343bbbd4e1c2e1fc53657d09722f02c07e24592ed8ad186fee\",\"verifiedOnBlockchain\":true,\"status\":\"confirmed\",\"toSmartContract\":false,\"insertImportTime\":false},{\"blockNumber\":\"12253020\",\"id\":\"fb9caf00-d030-11ec-bca2-21ab9f044663\",\"networkID\":\"3\",\"chainId\":\"3\",\"time\":1652166934000,\"transaction\":{\"data\":\"0x\",\"from\":\"0xaf3bc11b63160469955ca5ca4be7093b240ccbf0\",\"gas\":\"0x5208\",\"gasPrice\":\"0x4f50cbb667\",\"gasUsed\":\"0x5208\",\"nonce\":\"0x0\",\"to\":\"0x3c0b102a1921f9a75b791ad234e522198923a6ec\",\"value\":\"0x5af3107a4000\"},\"transactionHash\":\"0x646d612f86847d92e3bff479938b163d196b752a3b47b7c3687ecd489ac510e1\",\"verifiedOnBlockchain\":true,\"status\":\"confirmed\",\"toSmartContract\":false,\"insertImportTime\":true}],\"internalTransactions\":[],\"swapsTransactions\":{}},\"TypedMessageManager\":{\"unapprovedMessages\":{},\"unapprovedMessagesCount\":0},\"GasFeeController\":{\"gasFeeEstimates\":{},\"estimatedGasFeeTimeBounds\":{},\"gasEstimateType\":\"none\"},\"TokenDetectionController\":{},\"CollectibleDetectionController\":{},\"TokenListController\":{\"tokensChainsCache\":{}},\"SwapsController\":{\"quotes\":{},\"quoteValues\":{},\"fetchParams\":{\"slippage\":0,\"sourceToken\":\"\",\"sourceAmount\":0,\"destinationToken\":\"\",\"walletAddress\":\"\"},\"fetchParamsMetaData\":{\"sourceTokenInfo\":{\"decimals\":0,\"address\":\"\",\"symbol\":\"\"},\"destinationTokenInfo\":{\"decimals\":0,\"address\":\"\",\"symbol\":\"\"}},\"topAggSavings\":null,\"approvalTransaction\":null,\"quotesLastFetched\":0,\"error\":{\"key\":null,\"description\":null},\"topAggId\":null,\"isInPolling\":false,\"pollingCyclesLeft\":3,\"quoteRefreshSeconds\":null,\"usedGasEstimate\":null,\"usedCustomGas\":null},\"PhishingController\":{}}}","privacy":"{\"privacyMode\":true,\"thirdPartyApiMode\":true,\"approvedHosts\":{}}","bookmarks":"[]","recents":"[\"0xAF3bC11B63160469955cA5cA4BE7093B240CCBF0\",null,null]","browser":"{\"activeTab\":null,\"history\":[],\"whitelist\":[],\"tabs\":[]}","modals":"{\"networkModalVisible\":false,\"accountsModalVisible\":false,\"collectibleContractModalVisible\":false,\"receiveModalVisible\":false,\"dappTransactionModalVisible\":false,\"approveModalVisible\":false}","settings":"{\"searchEngine\":\"DuckDuckGo\",\"primaryCurrency\":\"ETH\",\"useBlockieIcon\":true,\"hideZeroBalanceTokens\":false,\"lockTime\":30000}","alert":"{\"isVisible\":false,\"autodismiss\":null,\"content\":\"clipboard-alert\",\"data\":{\"msg\":\"공개 주소가 클립보드에 복사됨\"}}","transaction":"{\"selectedAsset\":{},\"transaction\":{}}","user":"{\"loadingMsg\":\"\",\"loadingSet\":false,\"backUpSeedphraseVisible\":false,\"protectWalletModalVisible\":false,\"nftDetectionDismissed\":false,\"appTheme\":\"os\",\"passwordSet\":true,\"seedphraseBackedUp\":true,\"gasEducationCarouselSeen\":true,\"userLoggedIn\":true}","wizard":"{\"step\":0}","notification":"{\"notifications\":[]}","swaps":"{\"1\":{\"isLive\":true},\"isLive\":true,\"hasOnboarded\":false}","fiatOrders":"{\"selectedCountry\":\"US\",\"orders\":[]}","infuraAvailability":"{\"isBlocked\":false}","navigation":"{\"currentRoute\":\"Asset\"}","networkOnboarded":"{\"networkOnboardedState\":[{\"network\":\"ropsten\",\"onboarded\":true}],\"networkState\":{\"showNetworkOnboarding\":false,\"nativeToken\":\"\",\"networkType\":\"\",\"networkUrl\":\"\"},\"switchedNetwork\":{\"networkUrl\":\"\",\"networkStatus\":false}}","_persist":"{\"version\":10,\"rehydrated\":true}"}